{
  "contractName": "PayrollContract",
  "abi": [
    {
      "constant": true,
      "inputs": [
        {
          "name": "",
          "type": "uint256"
        }
      ],
      "name": "currentPayroll",
      "outputs": [
        {
          "name": "employee_id",
          "type": "uint256"
        },
        {
          "name": "hours_worked",
          "type": "uint256"
        }
      ],
      "payable": false,
      "stateMutability": "view",
      "type": "function"
    },
    {
      "constant": true,
      "inputs": [],
      "name": "employee_id",
      "outputs": [
        {
          "name": "",
          "type": "uint256"
        }
      ],
      "payable": false,
      "stateMutability": "view",
      "type": "function"
    },
    {
      "constant": true,
      "inputs": [
        {
          "name": "",
          "type": "uint256"
        }
      ],
      "name": "employees",
      "outputs": [
        {
          "name": "employee_id",
          "type": "uint256"
        },
        {
          "name": "name",
          "type": "string"
        },
        {
          "name": "public_address",
          "type": "address"
        },
        {
          "name": "hourly_rate",
          "type": "uint256"
        },
        {
          "name": "time_created",
          "type": "uint256"
        }
      ],
      "payable": false,
      "stateMutability": "view",
      "type": "function"
    },
    {
      "constant": true,
      "inputs": [
        {
          "name": "",
          "type": "uint256"
        },
        {
          "name": "",
          "type": "uint256"
        }
      ],
      "name": "payrolls",
      "outputs": [
        {
          "name": "employee_id",
          "type": "uint256"
        },
        {
          "name": "hours_worked",
          "type": "uint256"
        }
      ],
      "payable": false,
      "stateMutability": "view",
      "type": "function"
    },
    {
      "constant": true,
      "inputs": [
        {
          "name": "",
          "type": "address"
        }
      ],
      "name": "balanceOf",
      "outputs": [
        {
          "name": "",
          "type": "uint256"
        }
      ],
      "payable": false,
      "stateMutability": "view",
      "type": "function"
    },
    {
      "constant": true,
      "inputs": [],
      "name": "payroll_id",
      "outputs": [
        {
          "name": "",
          "type": "uint256"
        }
      ],
      "payable": false,
      "stateMutability": "view",
      "type": "function"
    },
    {
      "constant": false,
      "inputs": [],
      "name": "deposit",
      "outputs": [],
      "payable": true,
      "stateMutability": "payable",
      "type": "function"
    },
    {
      "constant": true,
      "inputs": [],
      "name": "currentPayrollCount",
      "outputs": [
        {
          "name": "",
          "type": "uint256"
        }
      ],
      "payable": false,
      "stateMutability": "view",
      "type": "function"
    },
    {
      "constant": false,
      "inputs": [
        {
          "name": "_employee_address",
          "type": "address"
        },
        {
          "name": "_hourly_rate",
          "type": "uint256"
        },
        {
          "name": "_name",
          "type": "string"
        }
      ],
      "name": "createEmployee",
      "outputs": [
        {
          "name": "",
          "type": "uint256"
        }
      ],
      "payable": false,
      "stateMutability": "nonpayable",
      "type": "function"
    },
    {
      "constant": false,
      "inputs": [],
      "name": "createNewPayroll",
      "outputs": [
        {
          "name": "",
          "type": "uint256"
        }
      ],
      "payable": false,
      "stateMutability": "nonpayable",
      "type": "function"
    },
    {
      "constant": true,
      "inputs": [],
      "name": "getCurrentPayroll",
      "outputs": [
        {
          "name": "",
          "type": "uint256"
        }
      ],
      "payable": false,
      "stateMutability": "view",
      "type": "function"
    },
    {
      "constant": false,
      "inputs": [
        {
          "name": "_employee_id",
          "type": "uint256"
        },
        {
          "name": "_hours_worked",
          "type": "uint256"
        }
      ],
      "name": "addEmployeeToPayroll",
      "outputs": [],
      "payable": false,
      "stateMutability": "nonpayable",
      "type": "function"
    },
    {
      "constant": false,
      "inputs": [
        {
          "name": "_employee_id",
          "type": "uint256"
        },
        {
          "name": "_hours_worked",
          "type": "uint256"
        }
      ],
      "name": "updateHoursWorked",
      "outputs": [],
      "payable": false,
      "stateMutability": "nonpayable",
      "type": "function"
    },
    {
      "constant": false,
      "inputs": [],
      "name": "checkLastEmployeePayment",
      "outputs": [
        {
          "name": "",
          "type": "uint256"
        }
      ],
      "payable": false,
      "stateMutability": "nonpayable",
      "type": "function"
    },
    {
      "constant": false,
      "inputs": [],
      "name": "runPayroll",
      "outputs": [],
      "payable": false,
      "stateMutability": "nonpayable",
      "type": "function"
    }
  ],
  "bytecode": "0x608060405234801561001057600080fd5b50611003806100206000396000f3fe6080604052600436106100db576000357c0100000000000000000000000000000000000000000000000000000000900463ffffffff1680632486cd97146100e057806326a61fc1146101095780632f09601214610146578063387dbcab1461018457806346ccd009146101af5780634739326b146101da57806351c1d6691461021b5780636394b1e01461024457806370a082311461028257806389a14335146102bf5780639b923871146102ea578063d0e30db014610315578063dfdd14531461031f578063e0ff0b601461034a578063f2e8048314610375575b600080fd5b3480156100ec57600080fd5b5061010760048036036101029190810190610d7a565b61038c565b005b34801561011557600080fd5b50610130600480360361012b9190810190610cea565b6103f5565b60405161013d9190610e0a565b60405180910390f35b34801561015257600080fd5b5061016d60048036036101689190810190610d51565b6104ff565b60405161017b929190610e7f565b60405180910390f35b34801561019057600080fd5b50610199610532565b6040516101a69190610e0a565b60405180910390f35b3480156101bb57600080fd5b506101c4610538565b6040516101d19190610e0a565b60405180910390f35b3480156101e657600080fd5b5061020160048036036101fc9190810190610d51565b610542565b604051610212959493929190610e25565b60405180910390f35b34801561022757600080fd5b50610242600480360361023d9190810190610d7a565b610630565b005b34801561025057600080fd5b5061026b60048036036102669190810190610d7a565b6106a9565b604051610279929190610e7f565b60405180910390f35b34801561028e57600080fd5b506102a960048036036102a49190810190610cc1565b6106e9565b6040516102b69190610e0a565b60405180910390f35b3480156102cb57600080fd5b506102d4610701565b6040516102e19190610e0a565b60405180910390f35b3480156102f657600080fd5b506102ff61070e565b60405161030c9190610e0a565b60405180910390f35b61031d610760565b005b34801561032b57600080fd5b506103346107af565b6040516103419190610e0a565b60405180910390f35b34801561035657600080fd5b5061035f6107b5565b60405161036c9190610e0a565b60405180910390f35b34801561038157600080fd5b5061038a61086a565b005b610394610a5d565b6040805190810160405280848152602001838152509050600281908060018154018082558091505090600182039060005260206000209060020201600090919290919091506000820151816000015560208201518160010155505050505050565b600080600081548092919060010191905055506000429050610415610a77565b60a06040519081016040528060005481526020018581526020018773ffffffffffffffffffffffffffffffffffffffff168152602001868152602001838152509050806003600080548152602001908152602001600020600082015181600001556020820151816001019080519060200190610492929190610abd565b5060408201518160020160006101000a81548173ffffffffffffffffffffffffffffffffffffffff021916908373ffffffffffffffffffffffffffffffffffffffff1602179055506060820151816003015560808201518160040155905050600054925050509392505050565b60028181548110151561050e57fe5b90600052602060002090600202016000915090508060000154908060010154905082565b60005481565b6000600154905090565b6003602052806000526040600020600091509050806000015490806001018054600181600116156101000203166002900480601f0160208091040260200160405190810160405280929190818152602001828054600181600116156101000203166002900480156105f45780601f106105c9576101008083540402835291602001916105f4565b820191906000526020600020905b8154815290600101906020018083116105d757829003601f168201915b5050505050908060020160009054906101000a900473ffffffffffffffffffffffffffffffffffffffff16908060030154908060040154905085565b6000600280549050905060008090505b818110156106a3578360028281548110151561065857fe5b9060005260206000209060020201600001541415610696578260028281548110151561068057fe5b9060005260206000209060020201600101819055505b8080600101915050610640565b50505050565b6004602052816000526040600020818154811015156106c457fe5b9060005260206000209060020201600091509150508060000154908060010154905082565b60056020528060005260406000206000915090505481565b6000600280549050905090565b600060016000815480929190600101919050555060006002816107319190610b3d565b506002600460006001548152602001908152602001600020908054610757929190610b6f565b50600154905090565b34600560003373ffffffffffffffffffffffffffffffffffffffff1673ffffffffffffffffffffffffffffffffffffffff16815260200190815260200160002060008282540192505081905550565b60015481565b60008060026004600060015481526020019081526020016000209080546107dd929190610b6f565b506000600280549050905060008090505b8181101561086157600060028281548110151561080757fe5b9060005260206000209060020201600101546003600060028581548110151561082c57fe5b9060005260206000209060020201600001548152602001908152602001600020600301540293505080806001019150506107ee565b50819250505090565b600260046000600154815260200190815260200160002090805461088f929190610b6f565b506000600280549050905060008090505b81811015610a50576000806002838154811015156108ba57fe5b906000526020600020906002020160010154600360006002868154811015156108df57fe5b906000526020600020906002020160000154815260200190815260200160002060030154029150600560003373ffffffffffffffffffffffffffffffffffffffff1673ffffffffffffffffffffffffffffffffffffffff16815260200190815260200160002054821115151561095457600080fd5b6003600060028581548110151561096757fe5b906000526020600020906002020160000154815260200190815260200160002060020160009054906101000a900473ffffffffffffffffffffffffffffffffffffffff1690508073ffffffffffffffffffffffffffffffffffffffff166108fc839081150290604051600060405180830381858888f193505050501580156109f3573d6000803e3d6000fd5b5081600560003373ffffffffffffffffffffffffffffffffffffffff1673ffffffffffffffffffffffffffffffffffffffff16815260200190815260200160002060008282540392505081905550505080806001019150506108a0565b50610a5961070e565b5050565b604080519081016040528060008152602001600081525090565b60a0604051908101604052806000815260200160608152602001600073ffffffffffffffffffffffffffffffffffffffff16815260200160008152602001600081525090565b828054600181600116156101000203166002900490600052602060002090601f016020900481019282601f10610afe57805160ff1916838001178555610b2c565b82800160010185558215610b2c579182015b82811115610b2b578251825591602001919060010190610b10565b5b509050610b399190610bdb565b5090565b815481835581811115610b6a57600202816002028360005260206000209182019101610b699190610c00565b5b505050565b828054828255906000526020600020906002028101928215610bca5760005260206000209160020282015b82811115610bc95782826000820154816000015560018201548160010155505091600201919060020190610b9a565b5b509050610bd79190610c00565b5090565b610bfd91905b80821115610bf9576000816000905550600101610be1565b5090565b90565b610c2c91905b80821115610c2857600080820160009055600182016000905550600201610c06565b5090565b90565b6000610c3b8235610f48565b905092915050565b6000610c4f8235610f5a565b905092915050565b600082601f8301121515610c6a57600080fd5b8135610c7d610c7882610ed5565b610ea8565b91508082526020830160208301858383011115610c9957600080fd5b610ca4838284610f76565b50505092915050565b6000610cb98235610f6c565b905092915050565b600060208284031215610cd357600080fd5b6000610ce184828501610c2f565b91505092915050565b600080600060608486031215610cff57600080fd5b6000610d0d86828701610c43565b9350506020610d1e86828701610cad565b925050604084013567ffffffffffffffff811115610d3b57600080fd5b610d4786828701610c57565b9150509250925092565b600060208284031215610d6357600080fd5b6000610d7184828501610cad565b91505092915050565b60008060408385031215610d8d57600080fd5b6000610d9b85828601610cad565b9250506020610dac85828601610cad565b9150509250929050565b610dbf81610f0c565b82525050565b6000610dd082610f01565b808452610de4816020860160208601610f85565b610ded81610fb8565b602085010191505092915050565b610e0481610f3e565b82525050565b6000602082019050610e1f6000830184610dfb565b92915050565b600060a082019050610e3a6000830188610dfb565b8181036020830152610e4c8187610dc5565b9050610e5b6040830186610db6565b610e686060830185610dfb565b610e756080830184610dfb565b9695505050505050565b6000604082019050610e946000830185610dfb565b610ea16020830184610dfb565b9392505050565b6000604051905081810181811067ffffffffffffffff82111715610ecb57600080fd5b8060405250919050565b600067ffffffffffffffff821115610eec57600080fd5b601f19601f8301169050602081019050919050565b600081519050919050565b6000610f1782610f1e565b9050919050565b600073ffffffffffffffffffffffffffffffffffffffff82169050919050565b6000819050919050565b6000610f5382610f1e565b9050919050565b6000610f6582610f1e565b9050919050565b6000819050919050565b82818337600083830152505050565b60005b83811015610fa3578082015181840152602081019050610f88565b83811115610fb2576000848401525b50505050565b6000601f19601f830116905091905056fea265627a7a7230582051ca51dae8b40f6733bd70ad85fc44e84eb7abc4de51505a72da3f05977f78646c6578706572696d656e74616cf50037",
  "source": "pragma solidity ^0.5.0;\npragma experimental ABIEncoderV2;\n\n// import 'openzeppelin-solidity/contracts/token/ERC721/ERC721Full.sol';\n// import \"openzeppelin-solidity/contracts/token/ERC721/ERC721.sol\";\n// import 'openzeppelin-solidity/contracts/ownership/Ownable.sol';\n\ncontract PayrollContract {\n  uint256 public employee_id;\n  uint256 public payroll_id;\n\n  struct Employee {\n    uint256 employee_id;\n    string name;\n    address payable public_address;\n    uint256 hourly_rate;\n    uint256 time_created;\n  }\n\n  struct Payroll {\n    uint256 employee_id;\n    uint256 hours_worked;\n  }\n\n  Payroll[] public currentPayroll;\n\n  mapping (uint => Employee) public employees;\n  mapping (uint => Payroll[]) public payrolls;\n  mapping (address => uint256) public balanceOf;\n\n  // todo: dont work\n  // function getCurrentPayroll (uint i) public returns(Payroll) {\n  //   return currentPayroll[i];\n  // }\n  \n\n  function deposit() public payable {\n    balanceOf[msg.sender] += msg.value;\n  }\n\n  function currentPayrollCount() public view returns(uint256) {\n    return currentPayroll.length;\n  }\n  \n  function createEmployee(address payable _employee_address, uint _hourly_rate, string memory _name) public returns(uint) {\n    // we don't need to pass in employee_id as an argument to the mint function because of the line below:\n    employee_id++;\n\n    uint time_created = now;\n\n    Employee memory employee = Employee({\n      name: _name,\n      employee_id: employee_id,\n      public_address: _employee_address,\n      hourly_rate: _hourly_rate,\n      time_created: time_created\n    });\n\n    employees[employee_id] = employee;\n\n    return employee_id;\n  }\n\n  function createNewPayroll() public returns(uint) {\n    payroll_id++;\n\n    currentPayroll.length = 0;\n\n    payrolls[payroll_id] = currentPayroll;\n\n    return payroll_id;\n  }\n\n  function getCurrentPayroll() public view returns(uint) {\n    return payroll_id;\n  }\n\n  function addEmployeeToPayroll(uint _employee_id, uint _hours_worked) public {\n    Payroll memory newEmployeePayroll = Payroll({\n      employee_id: _employee_id,\n      hours_worked: _hours_worked\n    });\n\n    currentPayroll.push(newEmployeePayroll);\n  }\n\n  function updateHoursWorked(uint _employee_id, uint _hours_worked) public {\n    uint arrayLength = currentPayroll.length;\n\n    for (uint i=0; i<arrayLength; i++) {\n      if(currentPayroll[i].employee_id == _employee_id) {\n        currentPayroll[i].hours_worked = _hours_worked;\n      }\n    }\n  }\n\n  function checkLastEmployeePayment() public returns(uint) {\n    uint256 payment;\n    payrolls[payroll_id] = currentPayroll;\n\n    uint arrayLength = currentPayroll.length;\n\n    for (uint i=0; i<arrayLength; i++) {\n      address payable employee_address;\n\n      payment = employees[currentPayroll[i].employee_id].hourly_rate*currentPayroll[i].hours_worked;\n    }\n\n    return payment;\n  }\n\n  function runPayroll() public {\n    // set current payroll\n    payrolls[payroll_id] = currentPayroll;\n\n    uint arrayLength = currentPayroll.length;\n\n    for (uint i=0; i<arrayLength; i++) {\n      uint256 payment;\n      address payable employee_address;\n\n      payment = employees[currentPayroll[i].employee_id].hourly_rate*currentPayroll[i].hours_worked;\n\n      require(payment <= balanceOf[msg.sender]);\n\n      employee_address = employees[currentPayroll[i].employee_id].public_address;\n      employee_address.transfer(payment);\n      balanceOf[msg.sender] -= payment;\n    }\n\n    createNewPayroll();\n  }\n}\n",
  "sourcePath": "/Users/richardkuo/Work/ethereum/consensus-2019/contracts/PayrollContract.sol",
  "compiler": {
    "name": "solc",
    "version": "0.5.0+commit.1d4f565a.Emscripten.clang"
  },
  "schemaVersion": "3.0.9",
  "updatedAt": "2019-05-12T17:17:14.287Z",
  "devdoc": {
    "methods": {}
  },
  "userdoc": {
    "methods": {}
  }
}