{
  "contractName": "PayrollContract",
  "abi": [
    {
      "constant": true,
      "inputs": [
        {
          "name": "",
          "type": "uint256"
        }
      ],
      "name": "currentPayroll",
      "outputs": [
        {
          "name": "employee_id",
          "type": "uint256"
        },
        {
          "name": "hours_worked",
          "type": "uint256"
        }
      ],
      "payable": false,
      "stateMutability": "view",
      "type": "function",
      "signature": "0x2f096012"
    },
    {
      "constant": true,
      "inputs": [],
      "name": "employee_id",
      "outputs": [
        {
          "name": "",
          "type": "uint256"
        }
      ],
      "payable": false,
      "stateMutability": "view",
      "type": "function",
      "signature": "0x387dbcab"
    },
    {
      "constant": true,
      "inputs": [
        {
          "name": "",
          "type": "uint256"
        }
      ],
      "name": "employees",
      "outputs": [
        {
          "name": "employee_id",
          "type": "uint256"
        },
        {
          "name": "public_address",
          "type": "address"
        },
        {
          "name": "hourly_rate",
          "type": "uint256"
        },
        {
          "name": "time_created",
          "type": "uint256"
        }
      ],
      "payable": false,
      "stateMutability": "view",
      "type": "function",
      "signature": "0x4739326b"
    },
    {
      "constant": true,
      "inputs": [
        {
          "name": "",
          "type": "uint256"
        },
        {
          "name": "",
          "type": "uint256"
        }
      ],
      "name": "payrolls",
      "outputs": [
        {
          "name": "employee_id",
          "type": "uint256"
        },
        {
          "name": "hours_worked",
          "type": "uint256"
        }
      ],
      "payable": false,
      "stateMutability": "view",
      "type": "function",
      "signature": "0x6394b1e0"
    },
    {
      "constant": true,
      "inputs": [
        {
          "name": "",
          "type": "address"
        }
      ],
      "name": "balanceOf",
      "outputs": [
        {
          "name": "",
          "type": "uint256"
        }
      ],
      "payable": false,
      "stateMutability": "view",
      "type": "function",
      "signature": "0x70a08231"
    },
    {
      "constant": true,
      "inputs": [],
      "name": "payroll_id",
      "outputs": [
        {
          "name": "",
          "type": "uint256"
        }
      ],
      "payable": false,
      "stateMutability": "view",
      "type": "function",
      "signature": "0xdfdd1453"
    },
    {
      "constant": false,
      "inputs": [],
      "name": "deposit",
      "outputs": [],
      "payable": true,
      "stateMutability": "payable",
      "type": "function",
      "signature": "0xd0e30db0"
    },
    {
      "constant": false,
      "inputs": [],
      "name": "currentPayrollCount",
      "outputs": [
        {
          "name": "",
          "type": "uint256"
        }
      ],
      "payable": false,
      "stateMutability": "nonpayable",
      "type": "function",
      "signature": "0x89a14335"
    },
    {
      "constant": false,
      "inputs": [
        {
          "name": "_employee_address",
          "type": "address"
        },
        {
          "name": "_hourly_rate",
          "type": "uint256"
        }
      ],
      "name": "createEmployee",
      "outputs": [
        {
          "name": "",
          "type": "uint256"
        }
      ],
      "payable": false,
      "stateMutability": "nonpayable",
      "type": "function",
      "signature": "0x520a19c0"
    },
    {
      "constant": false,
      "inputs": [],
      "name": "createNewPayroll",
      "outputs": [
        {
          "name": "",
          "type": "uint256"
        }
      ],
      "payable": false,
      "stateMutability": "nonpayable",
      "type": "function",
      "signature": "0x9b923871"
    },
    {
      "constant": true,
      "inputs": [],
      "name": "getCurrentPayroll",
      "outputs": [
        {
          "name": "",
          "type": "uint256"
        }
      ],
      "payable": false,
      "stateMutability": "view",
      "type": "function",
      "signature": "0x46ccd009"
    },
    {
      "constant": false,
      "inputs": [
        {
          "name": "_employee_id",
          "type": "uint256"
        },
        {
          "name": "_hours_worked",
          "type": "uint256"
        }
      ],
      "name": "addEmployeeToPayroll",
      "outputs": [],
      "payable": false,
      "stateMutability": "nonpayable",
      "type": "function",
      "signature": "0x2486cd97"
    },
    {
      "constant": false,
      "inputs": [
        {
          "name": "_employee_id",
          "type": "uint256"
        },
        {
          "name": "_hours_worked",
          "type": "uint256"
        }
      ],
      "name": "updateHoursWorked",
      "outputs": [],
      "payable": false,
      "stateMutability": "nonpayable",
      "type": "function",
      "signature": "0x51c1d669"
    },
    {
      "constant": false,
      "inputs": [],
      "name": "runPayroll",
      "outputs": [],
      "payable": false,
      "stateMutability": "nonpayable",
      "type": "function",
      "signature": "0xf2e80483"
    }
  ],
  "bytecode": "0x608060405234801561001057600080fd5b50610c26806100206000396000f3fe6080604052600436106100d0576000357c0100000000000000000000000000000000000000000000000000000000900463ffffffff1680632486cd97146100d55780632f096012146100fe578063387dbcab1461013c57806346ccd009146101675780634739326b1461019257806351c1d669146101d2578063520a19c0146101fb5780636394b1e01461023857806370a082311461027657806389a14335146102b35780639b923871146102de578063d0e30db014610309578063dfdd145314610313578063f2e804831461033e575b600080fd5b3480156100e157600080fd5b506100fc60048036036100f79190810190610a9f565b610355565b005b34801561010a57600080fd5b5061012560048036036101209190810190610a76565b6103be565b604051610133929190610b59565b60405180910390f35b34801561014857600080fd5b506101516103f1565b60405161015e9190610af9565b60405180910390f35b34801561017357600080fd5b5061017c6103f7565b6040516101899190610af9565b60405180910390f35b34801561019e57600080fd5b506101b960048036036101b49190810190610a76565b610401565b6040516101c99493929190610b14565b60405180910390f35b3480156101de57600080fd5b506101f960048036036101f49190810190610a9f565b610451565b005b34801561020757600080fd5b50610222600480360361021d9190810190610a3a565b6104ca565b60405161022f9190610af9565b60405180910390f35b34801561024457600080fd5b5061025f600480360361025a9190810190610a9f565b6105b0565b60405161026d929190610b59565b60405180910390f35b34801561028257600080fd5b5061029d60048036036102989190810190610a11565b6105f0565b6040516102aa9190610af9565b60405180910390f35b3480156102bf57600080fd5b506102c8610608565b6040516102d59190610af9565b60405180910390f35b3480156102ea57600080fd5b506102f3610615565b6040516103009190610af9565b60405180910390f35b610311610667565b005b34801561031f57600080fd5b506103286106b6565b6040516103359190610af9565b60405180910390f35b34801561034a57600080fd5b506103536106bc565b005b61035d6108af565b6040805190810160405280848152602001838152509050600281908060018154018082558091505090600182039060005260206000209060020201600090919290919091506000820151816000015560208201518160010155505050505050565b6002818154811015156103cd57fe5b90600052602060002090600202016000915090508060000154908060010154905082565b60005481565b6000600154905090565b60036020528060005260406000206000915090508060000154908060010160009054906101000a900473ffffffffffffffffffffffffffffffffffffffff16908060020154908060030154905084565b6000600280549050905060008090505b818110156104c4578360028281548110151561047957fe5b90600052602060002090600202016000015414156104b757826002828154811015156104a157fe5b9060005260206000209060020201600101819055505b8080600101915050610461565b50505050565b6000806000815480929190600101919050555060004290506104ea6108c9565b60806040519081016040528060005481526020018673ffffffffffffffffffffffffffffffffffffffff1681526020018581526020018381525090508060036000805481526020019081526020016000206000820151816000015560208201518160010160006101000a81548173ffffffffffffffffffffffffffffffffffffffff021916908373ffffffffffffffffffffffffffffffffffffffff16021790555060408201518160020155606082015181600301559050506000549250505092915050565b6004602052816000526040600020818154811015156105cb57fe5b9060005260206000209060020201600091509150508060000154908060010154905082565b60056020528060005260406000206000915090505481565b6000600280549050905090565b600060016000815480929190600101919050555060006002816106389190610908565b50600260046000600154815260200190815260200160002090805461065e92919061093a565b50600154905090565b34600560003373ffffffffffffffffffffffffffffffffffffffff1673ffffffffffffffffffffffffffffffffffffffff16815260200190815260200160002060008282540192505081905550565b60015481565b60026004600060015481526020019081526020016000209080546106e192919061093a565b506000600280549050905060008090505b818110156108a25760008060028381548110151561070c57fe5b9060005260206000209060020201600101546003600060028681548110151561073157fe5b906000526020600020906002020160000154815260200190815260200160002060020154029150600560003373ffffffffffffffffffffffffffffffffffffffff1673ffffffffffffffffffffffffffffffffffffffff1681526020019081526020016000205482111515156107a657600080fd5b600360006002858154811015156107b957fe5b906000526020600020906002020160000154815260200190815260200160002060010160009054906101000a900473ffffffffffffffffffffffffffffffffffffffff1690508073ffffffffffffffffffffffffffffffffffffffff166108fc839081150290604051600060405180830381858888f19350505050158015610845573d6000803e3d6000fd5b5081600560003373ffffffffffffffffffffffffffffffffffffffff1673ffffffffffffffffffffffffffffffffffffffff16815260200190815260200160002060008282540392505081905550505080806001019150506106f2565b506108ab610615565b5050565b604080519081016040528060008152602001600081525090565b60806040519081016040528060008152602001600073ffffffffffffffffffffffffffffffffffffffff16815260200160008152602001600081525090565b8154818355818111156109355760020281600202836000526020600020918201910161093491906109a6565b5b505050565b8280548282559060005260206000209060020281019282156109955760005260206000209160020282015b828111156109945782826000820154816000015560018201548160010155505091600201919060020190610965565b5b5090506109a291906109a6565b5090565b6109d291905b808211156109ce576000808201600090556001820160009055506002016109ac565b5090565b90565b60006109e18235610bbe565b905092915050565b60006109f58235610bd0565b905092915050565b6000610a098235610be2565b905092915050565b600060208284031215610a2357600080fd5b6000610a31848285016109d5565b91505092915050565b60008060408385031215610a4d57600080fd5b6000610a5b858286016109e9565b9250506020610a6c858286016109fd565b9150509250929050565b600060208284031215610a8857600080fd5b6000610a96848285016109fd565b91505092915050565b60008060408385031215610ab257600080fd5b6000610ac0858286016109fd565b9250506020610ad1858286016109fd565b9150509250929050565b610ae481610b82565b82525050565b610af381610bb4565b82525050565b6000602082019050610b0e6000830184610aea565b92915050565b6000608082019050610b296000830187610aea565b610b366020830186610adb565b610b436040830185610aea565b610b506060830184610aea565b95945050505050565b6000604082019050610b6e6000830185610aea565b610b7b6020830184610aea565b9392505050565b6000610b8d82610b94565b9050919050565b600073ffffffffffffffffffffffffffffffffffffffff82169050919050565b6000819050919050565b6000610bc982610b94565b9050919050565b6000610bdb82610b94565b9050919050565b600081905091905056fea265627a7a723058204b871506594cc2fa2daaccab8fd8623262ddc56cc2f6c1dd27dc4ee974596c5c6c6578706572696d656e74616cf50037",
  "source": "pragma solidity ^0.5.0;\npragma experimental ABIEncoderV2;\n\n// import 'openzeppelin-solidity/contracts/token/ERC721/ERC721Full.sol';\n// import \"openzeppelin-solidity/contracts/token/ERC721/ERC721.sol\";\n// import 'openzeppelin-solidity/contracts/ownership/Ownable.sol';\n\ncontract PayrollContract {\n  uint256 public employee_id;\n  uint256 public payroll_id;\n\n  struct Employee {\n    uint256 employee_id;\n    address payable public_address;\n    uint256 hourly_rate;\n    uint256 time_created;\n  }\n\n  struct Payroll {\n    uint256 employee_id;\n    uint256 hours_worked;\n  }\n\n  Payroll[] public currentPayroll;\n\n  mapping (uint => Employee) public employees;\n  mapping (uint => Payroll[]) public payrolls;\n  mapping (address => uint256) public balanceOf;\n\n  // todo: dont work\n  // function getCurrentPayroll (uint i) public returns(Payroll) {\n  //   return currentPayroll[i];\n  // }\n  \n\n  function deposit() public payable {\n    balanceOf[msg.sender] += msg.value;\n  }\n\n  function currentPayrollCount () public returns(uint256) {\n    return currentPayroll.length;\n  }\n  \n\n  function createEmployee(address payable _employee_address, uint _hourly_rate) public returns(uint) {\n    // we don't need to pass in employee_id as an argument to the mint function because of the line below:\n    employee_id++;\n\n    uint time_created = now;\n\n    Employee memory employee = Employee({\n      employee_id: employee_id,\n      public_address: _employee_address,\n      hourly_rate: _hourly_rate,\n      time_created: time_created\n    });\n\n    employees[employee_id] = employee;\n\n    return employee_id;\n  }\n\n  function createNewPayroll() public returns(uint) {\n    payroll_id++;\n\n    currentPayroll.length = 0;\n\n    payrolls[payroll_id] = currentPayroll;\n\n    return payroll_id;\n  }\n\n  function getCurrentPayroll() public view returns(uint) {\n    return payroll_id;\n  }\n\n  function addEmployeeToPayroll(uint _employee_id, uint _hours_worked) public {\n    Payroll memory newEmployeePayroll = Payroll({\n      employee_id: _employee_id,\n      hours_worked: _hours_worked\n    });\n\n    currentPayroll.push(newEmployeePayroll);\n  }\n\n  function updateHoursWorked(uint _employee_id, uint _hours_worked) public {\n    uint arrayLength = currentPayroll.length;\n\n    for (uint i=0; i<arrayLength; i++) {\n      if(currentPayroll[i].employee_id == _employee_id) {\n        currentPayroll[i].hours_worked = _hours_worked;\n      }\n    }\n  }\n\n  function runPayroll() public {\n    // set current payroll\n    payrolls[payroll_id] = currentPayroll;\n\n    uint arrayLength = currentPayroll.length;\n\n    for (uint i=0; i<arrayLength; i++) {\n      uint256 payment;\n      address payable employee_address;\n\n      payment = employees[currentPayroll[i].employee_id].hourly_rate*currentPayroll[i].hours_worked;\n\n      require(payment <= balanceOf[msg.sender]);\n\n      employee_address = employees[currentPayroll[i].employee_id].public_address;\n      employee_address.transfer(payment);\n      balanceOf[msg.sender] -= payment;\n    }\n\n    createNewPayroll();\n  }\n}\n",
  "sourcePath": "/Users/freeslugs/Downloads/doggocoin/contracts/PayrollContract.sol",
  "compiler": {
    "name": "solc",
    "version": "0.5.0+commit.1d4f565a.Emscripten.clang"
  },
  "schemaVersion": "3.0.1",
  "updatedAt": "2019-05-12T00:20:43.722Z",
  "devdoc": {
    "methods": {}
  },
  "userdoc": {
    "methods": {}
  }
}