{
  "contractName": "PayrollContract",
  "abi": [
    {
      "constant": true,
      "inputs": [
        {
          "name": "",
          "type": "uint256"
        }
      ],
      "name": "currentPayroll",
      "outputs": [
        {
          "name": "employee_id",
          "type": "uint256"
        },
        {
          "name": "hours_worked",
          "type": "uint256"
        }
      ],
      "payable": false,
      "stateMutability": "view",
      "type": "function",
      "signature": "0x2f096012"
    },
    {
      "constant": true,
      "inputs": [],
      "name": "employee_id",
      "outputs": [
        {
          "name": "",
          "type": "uint256"
        }
      ],
      "payable": false,
      "stateMutability": "view",
      "type": "function",
      "signature": "0x387dbcab"
    },
    {
      "constant": true,
      "inputs": [
        {
          "name": "",
          "type": "uint256"
        }
      ],
      "name": "employees",
      "outputs": [
        {
          "name": "employee_id",
          "type": "uint256"
        },
        {
          "name": "public_address",
          "type": "address"
        },
        {
          "name": "hourly_rate",
          "type": "uint256"
        },
        {
          "name": "time_created",
          "type": "uint256"
        }
      ],
      "payable": false,
      "stateMutability": "view",
      "type": "function",
      "signature": "0x4739326b"
    },
    {
      "constant": true,
      "inputs": [
        {
          "name": "",
          "type": "uint256"
        },
        {
          "name": "",
          "type": "uint256"
        }
      ],
      "name": "payrolls",
      "outputs": [
        {
          "name": "employee_id",
          "type": "uint256"
        },
        {
          "name": "hours_worked",
          "type": "uint256"
        }
      ],
      "payable": false,
      "stateMutability": "view",
      "type": "function",
      "signature": "0x6394b1e0"
    },
    {
      "constant": true,
      "inputs": [
        {
          "name": "",
          "type": "address"
        }
      ],
      "name": "balanceOf",
      "outputs": [
        {
          "name": "",
          "type": "uint256"
        }
      ],
      "payable": false,
      "stateMutability": "view",
      "type": "function",
      "signature": "0x70a08231"
    },
    {
      "constant": true,
      "inputs": [],
      "name": "payroll_id",
      "outputs": [
        {
          "name": "",
          "type": "uint256"
        }
      ],
      "payable": false,
      "stateMutability": "view",
      "type": "function",
      "signature": "0xdfdd1453"
    },
    {
      "constant": false,
      "inputs": [],
      "name": "deposit",
      "outputs": [],
      "payable": true,
      "stateMutability": "payable",
      "type": "function",
      "signature": "0xd0e30db0"
    },
    {
      "constant": false,
      "inputs": [],
      "name": "currentPayrollCount",
      "outputs": [
        {
          "name": "",
          "type": "uint256"
        }
      ],
      "payable": false,
      "stateMutability": "nonpayable",
      "type": "function",
      "signature": "0x89a14335"
    },
    {
      "constant": false,
      "inputs": [
        {
          "name": "_employee_address",
          "type": "address"
        },
        {
          "name": "_hourly_rate",
          "type": "uint256"
        }
      ],
      "name": "createEmployee",
      "outputs": [],
      "payable": false,
      "stateMutability": "nonpayable",
      "type": "function",
      "signature": "0x520a19c0"
    },
    {
      "constant": false,
      "inputs": [],
      "name": "createNewPayroll",
      "outputs": [
        {
          "name": "",
          "type": "uint256"
        }
      ],
      "payable": false,
      "stateMutability": "nonpayable",
      "type": "function",
      "signature": "0x9b923871"
    },
    {
      "constant": true,
      "inputs": [],
      "name": "getCurrentPayroll",
      "outputs": [
        {
          "name": "",
          "type": "uint256"
        }
      ],
      "payable": false,
      "stateMutability": "view",
      "type": "function",
      "signature": "0x46ccd009"
    },
    {
      "constant": false,
      "inputs": [
        {
          "name": "_employee_id",
          "type": "uint256"
        },
        {
          "name": "_hours_worked",
          "type": "uint256"
        }
      ],
      "name": "addEmployeeToPayroll",
      "outputs": [],
      "payable": false,
      "stateMutability": "nonpayable",
      "type": "function",
      "signature": "0x2486cd97"
    },
    {
      "constant": false,
      "inputs": [
        {
          "name": "_employee_id",
          "type": "uint256"
        },
        {
          "name": "_hours_worked",
          "type": "uint256"
        }
      ],
      "name": "updateHoursWorked",
      "outputs": [],
      "payable": false,
      "stateMutability": "nonpayable",
      "type": "function",
      "signature": "0x51c1d669"
    },
    {
      "constant": false,
      "inputs": [],
      "name": "runPayroll",
      "outputs": [],
      "payable": false,
      "stateMutability": "nonpayable",
      "type": "function",
      "signature": "0xf2e80483"
    }
  ],
  "bytecode": "0x608060405234801561001057600080fd5b50610c09806100206000396000f3fe6080604052600436106100d0576000357c0100000000000000000000000000000000000000000000000000000000900463ffffffff1680632486cd97146100d55780632f096012146100fe578063387dbcab1461013c57806346ccd009146101675780634739326b1461019257806351c1d669146101d2578063520a19c0146101fb5780636394b1e01461022457806370a082311461026257806389a143351461029f5780639b923871146102ca578063d0e30db0146102f5578063dfdd1453146102ff578063f2e804831461032a575b600080fd5b3480156100e157600080fd5b506100fc60048036036100f79190810190610a82565b610341565b005b34801561010a57600080fd5b5061012560048036036101209190810190610a59565b6103aa565b604051610133929190610b3c565b60405180910390f35b34801561014857600080fd5b506101516103dd565b60405161015e9190610adc565b60405180910390f35b34801561017357600080fd5b5061017c6103e3565b6040516101899190610adc565b60405180910390f35b34801561019e57600080fd5b506101b960048036036101b49190810190610a59565b6103ed565b6040516101c99493929190610af7565b60405180910390f35b3480156101de57600080fd5b506101f960048036036101f49190810190610a82565b61043d565b005b34801561020757600080fd5b50610222600480360361021d9190810190610a1d565b6104b6565b005b34801561023057600080fd5b5061024b60048036036102469190810190610a82565b610593565b604051610259929190610b3c565b60405180910390f35b34801561026e57600080fd5b50610289600480360361028491908101906109f4565b6105d3565b6040516102969190610adc565b60405180910390f35b3480156102ab57600080fd5b506102b46105eb565b6040516102c19190610adc565b60405180910390f35b3480156102d657600080fd5b506102df6105f8565b6040516102ec9190610adc565b60405180910390f35b6102fd61064a565b005b34801561030b57600080fd5b50610314610699565b6040516103219190610adc565b60405180910390f35b34801561033657600080fd5b5061033f61069f565b005b610349610892565b6040805190810160405280848152602001838152509050600281908060018154018082558091505090600182039060005260206000209060020201600090919290919091506000820151816000015560208201518160010155505050505050565b6002818154811015156103b957fe5b90600052602060002090600202016000915090508060000154908060010154905082565b60005481565b6000600154905090565b60036020528060005260406000206000915090508060000154908060010160009054906101000a900473ffffffffffffffffffffffffffffffffffffffff16908060020154908060030154905084565b6000600280549050905060008090505b818110156104b0578360028281548110151561046557fe5b90600052602060002090600202016000015414156104a3578260028281548110151561048d57fe5b9060005260206000209060020201600101819055505b808060010191505061044d565b50505050565b600080815480929190600101919050555060004290506104d46108ac565b60806040519081016040528060005481526020018573ffffffffffffffffffffffffffffffffffffffff1681526020018481526020018381525090508060036000805481526020019081526020016000206000820151816000015560208201518160010160006101000a81548173ffffffffffffffffffffffffffffffffffffffff021916908373ffffffffffffffffffffffffffffffffffffffff160217905550604082015181600201556060820151816003015590505050505050565b6004602052816000526040600020818154811015156105ae57fe5b9060005260206000209060020201600091509150508060000154908060010154905082565b60056020528060005260406000206000915090505481565b6000600280549050905090565b6000600160008154809291906001019190505550600060028161061b91906108eb565b50600260046000600154815260200190815260200160002090805461064192919061091d565b50600154905090565b34600560003373ffffffffffffffffffffffffffffffffffffffff1673ffffffffffffffffffffffffffffffffffffffff16815260200190815260200160002060008282540192505081905550565b60015481565b60026004600060015481526020019081526020016000209080546106c492919061091d565b506000600280549050905060008090505b81811015610885576000806002838154811015156106ef57fe5b9060005260206000209060020201600101546003600060028681548110151561071457fe5b906000526020600020906002020160000154815260200190815260200160002060020154029150600560003373ffffffffffffffffffffffffffffffffffffffff1673ffffffffffffffffffffffffffffffffffffffff16815260200190815260200160002054821115151561078957600080fd5b6003600060028581548110151561079c57fe5b906000526020600020906002020160000154815260200190815260200160002060010160009054906101000a900473ffffffffffffffffffffffffffffffffffffffff1690508073ffffffffffffffffffffffffffffffffffffffff166108fc839081150290604051600060405180830381858888f19350505050158015610828573d6000803e3d6000fd5b5081600560003373ffffffffffffffffffffffffffffffffffffffff1673ffffffffffffffffffffffffffffffffffffffff16815260200190815260200160002060008282540392505081905550505080806001019150506106d5565b5061088e6105f8565b5050565b604080519081016040528060008152602001600081525090565b60806040519081016040528060008152602001600073ffffffffffffffffffffffffffffffffffffffff16815260200160008152602001600081525090565b815481835581811115610918576002028160020283600052602060002091820191016109179190610989565b5b505050565b8280548282559060005260206000209060020281019282156109785760005260206000209160020282015b828111156109775782826000820154816000015560018201548160010155505091600201919060020190610948565b5b5090506109859190610989565b5090565b6109b591905b808211156109b15760008082016000905560018201600090555060020161098f565b5090565b90565b60006109c48235610ba1565b905092915050565b60006109d88235610bb3565b905092915050565b60006109ec8235610bc5565b905092915050565b600060208284031215610a0657600080fd5b6000610a14848285016109b8565b91505092915050565b60008060408385031215610a3057600080fd5b6000610a3e858286016109cc565b9250506020610a4f858286016109e0565b9150509250929050565b600060208284031215610a6b57600080fd5b6000610a79848285016109e0565b91505092915050565b60008060408385031215610a9557600080fd5b6000610aa3858286016109e0565b9250506020610ab4858286016109e0565b9150509250929050565b610ac781610b65565b82525050565b610ad681610b97565b82525050565b6000602082019050610af16000830184610acd565b92915050565b6000608082019050610b0c6000830187610acd565b610b196020830186610abe565b610b266040830185610acd565b610b336060830184610acd565b95945050505050565b6000604082019050610b516000830185610acd565b610b5e6020830184610acd565b9392505050565b6000610b7082610b77565b9050919050565b600073ffffffffffffffffffffffffffffffffffffffff82169050919050565b6000819050919050565b6000610bac82610b77565b9050919050565b6000610bbe82610b77565b9050919050565b600081905091905056fea265627a7a723058205c019bb934ee49c1872a55a0d334b421a27d29059217668147efb14e376117d46c6578706572696d656e74616cf50037",
  "source": "pragma solidity ^0.5.0;\npragma experimental ABIEncoderV2;\n\n// import 'openzeppelin-solidity/contracts/token/ERC721/ERC721Full.sol';\n// import \"openzeppelin-solidity/contracts/token/ERC721/ERC721.sol\";\n// import 'openzeppelin-solidity/contracts/ownership/Ownable.sol';\n\ncontract PayrollContract {\n  uint256 public employee_id;\n  uint256 public payroll_id;\n\n  struct Employee {\n    uint256 employee_id;\n    address payable public_address;\n    uint256 hourly_rate;\n    uint256 time_created;\n  }\n\n  struct Payroll {\n    uint256 employee_id;\n    uint256 hours_worked;\n  }\n\n  Payroll[] public currentPayroll;\n\n  mapping (uint => Employee) public employees;\n  mapping (uint => Payroll[]) public payrolls;\n  mapping (address => uint256) public balanceOf;\n\n  function deposit() public payable {\n    balanceOf[msg.sender] += msg.value;\n  }\n\n  function currentPayrollCount () public returns(uint256) {\n    return currentPayroll.length;\n  }\n  \n\n  function createEmployee(address payable _employee_address, uint _hourly_rate) public {\n    // we don't need to pass in employee_id as an argument to the mint function because of the line below:\n    employee_id++;\n\n    uint time_created = now;\n\n    Employee memory employee = Employee({\n      employee_id: employee_id,\n      public_address: _employee_address,\n      hourly_rate: _hourly_rate,\n      time_created: time_created\n    });\n\n    employees[employee_id] = employee;\n  }\n\n  function createNewPayroll() public returns(uint) {\n    payroll_id++;\n\n    currentPayroll.length = 0;\n\n    payrolls[payroll_id] = currentPayroll;\n\n    return payroll_id;\n  }\n\n  function getCurrentPayroll() public view returns(uint) {\n    return payroll_id;\n  }\n\n  function addEmployeeToPayroll(uint _employee_id, uint _hours_worked) public {\n    Payroll memory newEmployeePayroll = Payroll({\n      employee_id: _employee_id,\n      hours_worked: _hours_worked\n    });\n\n    currentPayroll.push(newEmployeePayroll);\n  }\n\n  function updateHoursWorked(uint _employee_id, uint _hours_worked) public {\n    uint arrayLength = currentPayroll.length;\n\n    for (uint i=0; i<arrayLength; i++) {\n      if(currentPayroll[i].employee_id == _employee_id) {\n        currentPayroll[i].hours_worked = _hours_worked;\n      }\n    }\n  }\n\n  function runPayroll() public {\n    // set current payroll\n    payrolls[payroll_id] = currentPayroll;\n\n    uint arrayLength = currentPayroll.length;\n\n    for (uint i=0; i<arrayLength; i++) {\n      uint256 payment;\n      address payable employee_address;\n\n      payment = employees[currentPayroll[i].employee_id].hourly_rate*currentPayroll[i].hours_worked;\n\n      require(payment <= balanceOf[msg.sender]);\n\n      employee_address = employees[currentPayroll[i].employee_id].public_address;\n      employee_address.transfer(payment);\n      balanceOf[msg.sender] -= payment;\n    }\n\n    createNewPayroll();\n  }\n}\n",
  "sourcePath": "/Users/freeslugs/Downloads/doggocoin/contracts/PayrollContract.sol",
  "compiler": {
    "name": "solc",
    "version": "0.5.0+commit.1d4f565a.Emscripten.clang"
  },
  "schemaVersion": "3.0.1",
  "updatedAt": "2019-05-11T23:49:49.387Z",
  "devdoc": {
    "methods": {}
  },
  "userdoc": {
    "methods": {}
  }
}