{
  "contractName": "PayrollContract",
  "abi": [
    {
      "constant": true,
      "inputs": [
        {
          "name": "",
          "type": "uint256"
        }
      ],
      "name": "currentPayroll",
      "outputs": [
        {
          "name": "employee_id",
          "type": "uint256"
        },
        {
          "name": "hours_worked",
          "type": "uint256"
        }
      ],
      "payable": false,
      "stateMutability": "view",
      "type": "function"
    },
    {
      "constant": true,
      "inputs": [],
      "name": "employee_id",
      "outputs": [
        {
          "name": "",
          "type": "uint256"
        }
      ],
      "payable": false,
      "stateMutability": "view",
      "type": "function"
    },
    {
      "constant": true,
      "inputs": [
        {
          "name": "",
          "type": "uint256"
        }
      ],
      "name": "employees",
      "outputs": [
        {
          "name": "employee_id",
          "type": "uint256"
        },
        {
          "name": "name",
          "type": "string"
        },
        {
          "name": "public_address",
          "type": "address"
        },
        {
          "name": "hourly_rate",
          "type": "uint256"
        },
        {
          "name": "time_created",
          "type": "uint256"
        }
      ],
      "payable": false,
      "stateMutability": "view",
      "type": "function"
    },
    {
      "constant": true,
      "inputs": [
        {
          "name": "",
          "type": "uint256"
        },
        {
          "name": "",
          "type": "uint256"
        }
      ],
      "name": "payrolls",
      "outputs": [
        {
          "name": "employee_id",
          "type": "uint256"
        },
        {
          "name": "hours_worked",
          "type": "uint256"
        }
      ],
      "payable": false,
      "stateMutability": "view",
      "type": "function"
    },
    {
      "constant": true,
      "inputs": [
        {
          "name": "",
          "type": "address"
        }
      ],
      "name": "balanceOf",
      "outputs": [
        {
          "name": "",
          "type": "uint256"
        }
      ],
      "payable": false,
      "stateMutability": "view",
      "type": "function"
    },
    {
      "constant": true,
      "inputs": [],
      "name": "payroll_id",
      "outputs": [
        {
          "name": "",
          "type": "uint256"
        }
      ],
      "payable": false,
      "stateMutability": "view",
      "type": "function"
    },
    {
      "constant": false,
      "inputs": [],
      "name": "deposit",
      "outputs": [],
      "payable": true,
      "stateMutability": "payable",
      "type": "function"
    },
    {
      "constant": true,
      "inputs": [],
      "name": "currentPayrollCount",
      "outputs": [
        {
          "name": "",
          "type": "uint256"
        }
      ],
      "payable": false,
      "stateMutability": "view",
      "type": "function"
    },
    {
      "constant": false,
      "inputs": [
        {
          "name": "_employee_address",
          "type": "address"
        },
        {
          "name": "_hourly_rate",
          "type": "uint256"
        },
        {
          "name": "_name",
          "type": "string"
        }
      ],
      "name": "createEmployee",
      "outputs": [
        {
          "name": "",
          "type": "uint256"
        }
      ],
      "payable": false,
      "stateMutability": "nonpayable",
      "type": "function"
    },
    {
      "constant": false,
      "inputs": [],
      "name": "createNewPayroll",
      "outputs": [
        {
          "name": "",
          "type": "uint256"
        }
      ],
      "payable": false,
      "stateMutability": "nonpayable",
      "type": "function"
    },
    {
      "constant": true,
      "inputs": [],
      "name": "getCurrentPayroll",
      "outputs": [
        {
          "name": "",
          "type": "uint256"
        }
      ],
      "payable": false,
      "stateMutability": "view",
      "type": "function"
    },
    {
      "constant": true,
      "inputs": [
        {
          "name": "_employee_id",
          "type": "uint256"
        },
        {
          "name": "_hours_worked",
          "type": "uint256"
        }
      ],
      "name": "getCurrentPayrollLength",
      "outputs": [
        {
          "name": "",
          "type": "uint256"
        }
      ],
      "payable": false,
      "stateMutability": "view",
      "type": "function"
    },
    {
      "constant": false,
      "inputs": [
        {
          "name": "_employee_id",
          "type": "uint256"
        },
        {
          "name": "_hours_worked",
          "type": "uint256"
        }
      ],
      "name": "addEmployeeToPayroll",
      "outputs": [],
      "payable": false,
      "stateMutability": "nonpayable",
      "type": "function"
    },
    {
      "constant": false,
      "inputs": [
        {
          "name": "_employee_id",
          "type": "uint256"
        },
        {
          "name": "_hours_worked",
          "type": "uint256"
        }
      ],
      "name": "updateHoursWorked",
      "outputs": [
        {
          "name": "",
          "type": "address"
        }
      ],
      "payable": false,
      "stateMutability": "nonpayable",
      "type": "function"
    },
    {
      "constant": false,
      "inputs": [],
      "name": "checkLastEmployeePayment",
      "outputs": [
        {
          "name": "",
          "type": "address"
        }
      ],
      "payable": false,
      "stateMutability": "nonpayable",
      "type": "function"
    },
    {
      "constant": false,
      "inputs": [],
      "name": "payLastEmployeeOne",
      "outputs": [
        {
          "name": "",
          "type": "bool"
        }
      ],
      "payable": false,
      "stateMutability": "nonpayable",
      "type": "function"
    },
    {
      "constant": false,
      "inputs": [],
      "name": "runPayroll",
      "outputs": [],
      "payable": false,
      "stateMutability": "nonpayable",
      "type": "function"
    }
  ],
  "bytecode": "0x608060405234801561001057600080fd5b50611255806100206000396000f3fe6080604052600436106100f1576000357c0100000000000000000000000000000000000000000000000000000000900463ffffffff1680630ef534cb146100f65780632486cd971461012157806326a61fc11461014a5780632f09601214610187578063387dbcab146101c557806346ccd009146101f05780634739326b1461021b57806351c1d6691461025c578063620530c1146102855780636394b1e0146102b057806370a08231146102ee57806389a143351461032b5780639b92387114610356578063d0e30db014610381578063dfdd14531461038b578063e0ff0b60146103b6578063f2e80483146103e1575b600080fd5b34801561010257600080fd5b5061010b6103f8565b6040516101189190611023565b60405180910390f35b34801561012d57600080fd5b5061014860048036036101439190810190610f5a565b61050f565b005b34801561015657600080fd5b50610171600480360361016c9190810190610eca565b610578565b60405161017e919061103e565b60405180910390f35b34801561019357600080fd5b506101ae60048036036101a99190810190610f31565b610682565b6040516101bc9291906110b3565b60405180910390f35b3480156101d157600080fd5b506101da6106b5565b6040516101e7919061103e565b60405180910390f35b3480156101fc57600080fd5b506102056106bb565b604051610212919061103e565b60405180910390f35b34801561022757600080fd5b50610242600480360361023d9190810190610f31565b6106c5565b604051610253959493929190611059565b60405180910390f35b34801561026857600080fd5b50610283600480360361027e9190810190610f5a565b6107b3565b005b34801561029157600080fd5b5061029a61082c565b6040516102a7919061103e565b60405180910390f35b3480156102bc57600080fd5b506102d760048036036102d29190810190610f5a565b610839565b6040516102e59291906110b3565b60405180910390f35b3480156102fa57600080fd5b5061031560048036036103109190810190610ea1565b610879565b604051610322919061103e565b60405180910390f35b34801561033757600080fd5b50610340610891565b60405161034d919061103e565b60405180910390f35b34801561036257600080fd5b5061036b61089e565b604051610378919061103e565b60405180910390f35b6103896108f0565b005b34801561039757600080fd5b506103a061093f565b6040516103ad919061103e565b60405180910390f35b3480156103c257600080fd5b506103cb610945565b6040516103d89190611008565b60405180910390f35b3480156103ed57600080fd5b506103f6610a53565b005b6000806002600460006001548152602001908152602001600020908054610420929190610c3d565b50600060028054905090506003600060028381548110151561043e57fe5b906000526020600020906002020160000154815260200190815260200160002060020160009054906101000a900473ffffffffffffffffffffffffffffffffffffffff1691506001600560003373ffffffffffffffffffffffffffffffffffffffff1673ffffffffffffffffffffffffffffffffffffffff168152602001908152602001600020600082825403925050819055508173ffffffffffffffffffffffffffffffffffffffff166108fc60019081150290604051600060405180830381858888f193505050509250505090565b610517610ca9565b6040805190810160405280848152602001838152509050600281908060018154018082558091505090600182039060005260206000209060020201600090919290919091506000820151816000015560208201518160010155505050505050565b600080600081548092919060010191905055506000429050610598610cc3565b60a06040519081016040528060005481526020018581526020018773ffffffffffffffffffffffffffffffffffffffff168152602001868152602001838152509050806003600080548152602001908152602001600020600082015181600001556020820151816001019080519060200190610615929190610d09565b5060408201518160020160006101000a81548173ffffffffffffffffffffffffffffffffffffffff021916908373ffffffffffffffffffffffffffffffffffffffff1602179055506060820151816003015560808201518160040155905050600054925050509392505050565b60028181548110151561069157fe5b90600052602060002090600202016000915090508060000154908060010154905082565b60005481565b6000600154905090565b6003602052806000526040600020600091509050806000015490806001018054600181600116156101000203166002900480601f0160208091040260200160405190810160405280929190818152602001828054600181600116156101000203166002900480156107775780601f1061074c57610100808354040283529160200191610777565b820191906000526020600020905b81548152906001019060200180831161075a57829003601f168201915b5050505050908060020160009054906101000a900473ffffffffffffffffffffffffffffffffffffffff16908060030154908060040154905085565b6000600280549050905060008090505b8181101561082657836002828154811015156107db57fe5b9060005260206000209060020201600001541415610819578260028281548110151561080357fe5b9060005260206000209060020201600101819055505b80806001019150506107c3565b50505050565b6000600280549050905090565b60046020528160005260406000208181548110151561085457fe5b9060005260206000209060020201600091509150508060000154908060010154905082565b60056020528060005260406000206000915090505481565b6000600280549050905090565b600060016000815480929190600101919050555060006002816108c19190610d89565b5060026004600060015481526020019081526020016000209080546108e7929190610c3d565b50600154905090565b34600560003373ffffffffffffffffffffffffffffffffffffffff1673ffffffffffffffffffffffffffffffffffffffff16815260200190815260200160002060008282540192505081905550565b60015481565b6000806000600260046000600154815260200190815260200160002090805461096f929190610c3d565b506000600280549050905060008090505b81811015610a495760028181548110151561099757fe5b906000526020600020906002020160010154600360006002848154811015156109bc57fe5b906000526020600020906002020160000154815260200190815260200160002060030154029350600360006002838154811015156109f657fe5b906000526020600020906002020160000154815260200190815260200160002060020160009054906101000a900473ffffffffffffffffffffffffffffffffffffffff1692508080600101915050610980565b5081935050505090565b6002600460006001548152602001908152602001600020908054610a78929190610c3d565b506000600280549050905060008090505b81811015610c3957600080600283815481101515610aa357fe5b90600052602060002090600202016001015460036000600286815481101515610ac857fe5b906000526020600020906002020160000154815260200190815260200160002060030154029150600560003373ffffffffffffffffffffffffffffffffffffffff1673ffffffffffffffffffffffffffffffffffffffff168152602001908152602001600020548211151515610b3d57600080fd5b60036000600285815481101515610b5057fe5b906000526020600020906002020160000154815260200190815260200160002060020160009054906101000a900473ffffffffffffffffffffffffffffffffffffffff1690508073ffffffffffffffffffffffffffffffffffffffff166108fc839081150290604051600060405180830381858888f19350505050158015610bdc573d6000803e3d6000fd5b5081600560003373ffffffffffffffffffffffffffffffffffffffff1673ffffffffffffffffffffffffffffffffffffffff1681526020019081526020016000206000828254039250508190555050508080600101915050610a89565b5050565b828054828255906000526020600020906002028101928215610c985760005260206000209160020282015b82811115610c975782826000820154816000015560018201548160010155505091600201919060020190610c68565b5b509050610ca59190610dbb565b5090565b604080519081016040528060008152602001600081525090565b60a0604051908101604052806000815260200160608152602001600073ffffffffffffffffffffffffffffffffffffffff16815260200160008152602001600081525090565b828054600181600116156101000203166002900490600052602060002090601f016020900481019282601f10610d4a57805160ff1916838001178555610d78565b82800160010185558215610d78579182015b82811115610d77578251825591602001919060010190610d5c565b5b509050610d859190610dea565b5090565b815481835581811115610db657600202816002028360005260206000209182019101610db59190610dbb565b5b505050565b610de791905b80821115610de357600080820160009055600182016000905550600201610dc1565b5090565b90565b610e0c91905b80821115610e08576000816000905550600101610df0565b5090565b90565b6000610e1b823561119a565b905092915050565b6000610e2f82356111ac565b905092915050565b600082601f8301121515610e4a57600080fd5b8135610e5d610e5882611109565b6110dc565b91508082526020830160208301858383011115610e7957600080fd5b610e848382846111c8565b50505092915050565b6000610e9982356111be565b905092915050565b600060208284031215610eb357600080fd5b6000610ec184828501610e0f565b91505092915050565b600080600060608486031215610edf57600080fd5b6000610eed86828701610e23565b9350506020610efe86828701610e8d565b925050604084013567ffffffffffffffff811115610f1b57600080fd5b610f2786828701610e37565b9150509250925092565b600060208284031215610f4357600080fd5b6000610f5184828501610e8d565b91505092915050565b60008060408385031215610f6d57600080fd5b6000610f7b85828601610e8d565b9250506020610f8c85828601610e8d565b9150509250929050565b610f9f81611152565b82525050565b610fae81611140565b82525050565b610fbd81611164565b82525050565b6000610fce82611135565b808452610fe28160208601602086016111d7565b610feb8161120a565b602085010191505092915050565b61100281611190565b82525050565b600060208201905061101d6000830184610fa5565b92915050565b60006020820190506110386000830184610fb4565b92915050565b60006020820190506110536000830184610ff9565b92915050565b600060a08201905061106e6000830188610ff9565b81810360208301526110808187610fc3565b905061108f6040830186610f96565b61109c6060830185610ff9565b6110a96080830184610ff9565b9695505050505050565b60006040820190506110c86000830185610ff9565b6110d56020830184610ff9565b9392505050565b6000604051905081810181811067ffffffffffffffff821117156110ff57600080fd5b8060405250919050565b600067ffffffffffffffff82111561112057600080fd5b601f19601f8301169050602081019050919050565b600081519050919050565b600061114b82611170565b9050919050565b600061115d82611170565b9050919050565b60008115159050919050565b600073ffffffffffffffffffffffffffffffffffffffff82169050919050565b6000819050919050565b60006111a582611170565b9050919050565b60006111b782611170565b9050919050565b6000819050919050565b82818337600083830152505050565b60005b838110156111f55780820151818401526020810190506111da565b83811115611204576000848401525b50505050565b6000601f19601f830116905091905056fea265627a7a72305820d2441eb93e7f447ac0b807bd04c9bc3a823d4c34889b84200bd579c11cc62d086c6578706572696d656e74616cf50037",
  "source": "pragma solidity ^0.5.0;\npragma experimental ABIEncoderV2;\n\n// import 'openzeppelin-solidity/contracts/token/ERC721/ERC721Full.sol';\n// import \"openzeppelin-solidity/contracts/token/ERC721/ERC721.sol\";\n// import 'openzeppelin-solidity/contracts/ownership/Ownable.sol';\n\ncontract PayrollContract {\n  uint256 public employee_id;\n  uint256 public payroll_id;\n\n  struct Employee {\n    uint256 employee_id;\n    string name;\n    address payable public_address;\n    uint256 hourly_rate;\n    uint256 time_created;\n  }\n\n  struct Payroll {\n    uint256 employee_id;\n    uint256 hours_worked;\n  }\n\n  Payroll[] public currentPayroll;\n\n  mapping (uint => Employee) public employees;\n  mapping (uint => Payroll[]) public payrolls;\n  mapping (address => uint256) public balanceOf;\n\n  // todo: dont work\n  // function getCurrentPayroll (uint i) public returns(Payroll) {\n  //   return currentPayroll[i];\n  // }\n  \n\n  function deposit() public payable {\n    balanceOf[msg.sender] += msg.value;\n  }\n\n  function currentPayrollCount() public view returns(uint256) {\n    return currentPayroll.length;\n  }\n  \n  function createEmployee(address payable _employee_address, uint _hourly_rate, string memory _name) public returns(uint) {\n    // we don't need to pass in employee_id as an argument to the mint function because of the line below:\n    employee_id++;\n\n    uint time_created = now;\n\n    Employee memory employee = Employee({\n      name: _name,\n      employee_id: employee_id,\n      public_address: _employee_address,\n      hourly_rate: _hourly_rate,\n      time_created: time_created\n    });\n\n    employees[employee_id] = employee;\n\n    return employee_id;\n  }\n\n  function createNewPayroll() public returns(uint) {\n    payroll_id++;\n\n    currentPayroll.length = 0;\n\n    payrolls[payroll_id] = currentPayroll;\n\n    return payroll_id;\n  }\n\n  function getCurrentPayroll() public view returns(uint) {\n    return payroll_id;\n  }\n\n  function getCurrentPayrollLength() public view returns(uint) {\n    return currentPayroll.length;\n  }\n\n  function addEmployeeToPayroll(uint _employee_id, uint _hours_worked) public {\n    Payroll memory newEmployeePayroll = Payroll({\n      employee_id: _employee_id,\n      hours_worked: _hours_worked\n    });\n\n    currentPayroll.push(newEmployeePayroll);\n  }\n\n  function updateHoursWorked(uint _employee_id, uint _hours_worked) public {\n    uint arrayLength = currentPayroll.length;\n\n    for (uint i=0; i<arrayLength; i++) {\n      if(currentPayroll[i].employee_id == _employee_id) {\n        currentPayroll[i].hours_worked = _hours_worked;\n      }\n    }\n  }\n\n  function checkLastEmployeePayment() public returns(address) {\n    uint256 payment;\n    address payable employee_address;\n    payrolls[payroll_id] = currentPayroll;\n\n    uint arrayLength = currentPayroll.length;\n\n    for (uint i=0; i<arrayLength; i++) {\n      payment = employees[currentPayroll[i].employee_id].hourly_rate*currentPayroll[i].hours_worked;\n      employee_address = employees[currentPayroll[i].employee_id].public_address;\n    }\n\n    // return payment;\n    return employee_address;\n  }\n\n  function payLastEmployeeOne() public returns(bool) {\n    address payable employee_address;\n    payrolls[payroll_id] = currentPayroll;\n\n    uint arrayLength = currentPayroll.length;\n\n    employee_address = employees[currentPayroll[arrayLength].employee_id].public_address;\n    balanceOf[msg.sender] -= 1;\n    return employee_address.send(1);\n  }\n\n  function runPayroll() public {\n    // set current payroll\n    payrolls[payroll_id] = currentPayroll;\n\n    uint arrayLength = currentPayroll.length;\n\n    for (uint i=0; i<arrayLength; i++) {\n      uint256 payment;\n      address payable employee_address;\n\n      payment = employees[currentPayroll[i].employee_id].hourly_rate*currentPayroll[i].hours_worked;\n\n      require(payment <= balanceOf[msg.sender]);\n\n      employee_address = employees[currentPayroll[i].employee_id].public_address;\n      employee_address.transfer(payment);\n      balanceOf[msg.sender] -= payment;\n    }\n\n    // createNewPayroll();\n  }\n}\n",
  "sourcePath": "/Users/richardkuo/Work/ethereum/consensus-2019/contracts/PayrollContract.sol",
  "compiler": {
    "name": "solc",
    "version": "0.5.0+commit.1d4f565a.Emscripten.clang"
  },
  "schemaVersion": "3.0.9",
  "updatedAt": "2019-05-12T17:43:45.095Z",
  "devdoc": {
    "methods": {}
  },
  "userdoc": {
    "methods": {}
  }
}