{
  "contractName": "PayrollContract",
  "abi": [
    {
      "constant": true,
      "inputs": [
        {
          "name": "",
          "type": "uint256"
        }
      ],
      "name": "currentPayroll",
      "outputs": [
        {
          "name": "employee_id",
          "type": "uint256"
        },
        {
          "name": "hours_worked",
          "type": "uint256"
        }
      ],
      "payable": false,
      "stateMutability": "view",
      "type": "function"
    },
    {
      "constant": true,
      "inputs": [],
      "name": "employee_id",
      "outputs": [
        {
          "name": "",
          "type": "uint256"
        }
      ],
      "payable": false,
      "stateMutability": "view",
      "type": "function"
    },
    {
      "constant": true,
      "inputs": [
        {
          "name": "",
          "type": "uint256"
        }
      ],
      "name": "employees",
      "outputs": [
        {
          "name": "employee_id",
          "type": "uint256"
        },
        {
          "name": "name",
          "type": "string"
        },
        {
          "name": "public_address",
          "type": "address"
        },
        {
          "name": "hourly_rate",
          "type": "uint256"
        },
        {
          "name": "time_created",
          "type": "uint256"
        }
      ],
      "payable": false,
      "stateMutability": "view",
      "type": "function"
    },
    {
      "constant": true,
      "inputs": [
        {
          "name": "",
          "type": "uint256"
        },
        {
          "name": "",
          "type": "uint256"
        }
      ],
      "name": "payrolls",
      "outputs": [
        {
          "name": "employee_id",
          "type": "uint256"
        },
        {
          "name": "hours_worked",
          "type": "uint256"
        }
      ],
      "payable": false,
      "stateMutability": "view",
      "type": "function"
    },
    {
      "constant": true,
      "inputs": [
        {
          "name": "",
          "type": "address"
        }
      ],
      "name": "balanceOf",
      "outputs": [
        {
          "name": "",
          "type": "uint256"
        }
      ],
      "payable": false,
      "stateMutability": "view",
      "type": "function"
    },
    {
      "constant": true,
      "inputs": [],
      "name": "payroll_id",
      "outputs": [
        {
          "name": "",
          "type": "uint256"
        }
      ],
      "payable": false,
      "stateMutability": "view",
      "type": "function"
    },
    {
      "constant": false,
      "inputs": [],
      "name": "deposit",
      "outputs": [],
      "payable": true,
      "stateMutability": "payable",
      "type": "function"
    },
    {
      "constant": true,
      "inputs": [],
      "name": "currentPayrollCount",
      "outputs": [
        {
          "name": "",
          "type": "uint256"
        }
      ],
      "payable": false,
      "stateMutability": "view",
      "type": "function"
    },
    {
      "constant": false,
      "inputs": [
        {
          "name": "_employee_address",
          "type": "address"
        },
        {
          "name": "_hourly_rate",
          "type": "uint256"
        },
        {
          "name": "_name",
          "type": "string"
        }
      ],
      "name": "createEmployee",
      "outputs": [
        {
          "name": "",
          "type": "uint256"
        }
      ],
      "payable": false,
      "stateMutability": "nonpayable",
      "type": "function"
    },
    {
      "constant": false,
      "inputs": [],
      "name": "createNewPayroll",
      "outputs": [
        {
          "name": "",
          "type": "uint256"
        }
      ],
      "payable": false,
      "stateMutability": "nonpayable",
      "type": "function"
    },
    {
      "constant": true,
      "inputs": [],
      "name": "getCurrentPayroll",
      "outputs": [
        {
          "name": "",
          "type": "uint256"
        }
      ],
      "payable": false,
      "stateMutability": "view",
      "type": "function"
    },
    {
      "constant": false,
      "inputs": [
        {
          "name": "_employee_id",
          "type": "uint256"
        },
        {
          "name": "_hours_worked",
          "type": "uint256"
        }
      ],
      "name": "addEmployeeToPayroll",
      "outputs": [],
      "payable": false,
      "stateMutability": "nonpayable",
      "type": "function"
    },
    {
      "constant": false,
      "inputs": [
        {
          "name": "_employee_id",
          "type": "uint256"
        },
        {
          "name": "_hours_worked",
          "type": "uint256"
        }
      ],
      "name": "updateHoursWorked",
      "outputs": [],
      "payable": false,
      "stateMutability": "nonpayable",
      "type": "function"
    },
    {
      "constant": false,
      "inputs": [],
      "name": "runPayroll",
      "outputs": [],
      "payable": false,
      "stateMutability": "nonpayable",
      "type": "function"
    }
  ],
  "bytecode": "0x608060405234801561001057600080fd5b50610f18806100206000396000f3fe6080604052600436106100d0576000357c0100000000000000000000000000000000000000000000000000000000900463ffffffff1680632486cd97146100d557806326a61fc1146100fe5780632f0960121461013b578063387dbcab1461017957806346ccd009146101a45780634739326b146101cf57806351c1d669146102105780636394b1e01461023957806370a082311461027757806389a14335146102b45780639b923871146102df578063d0e30db01461030a578063dfdd145314610314578063f2e804831461033f575b600080fd5b3480156100e157600080fd5b506100fc60048036036100f79190810190610c8f565b610356565b005b34801561010a57600080fd5b5061012560048036036101209190810190610bff565b6103bf565b6040516101329190610d1f565b60405180910390f35b34801561014757600080fd5b50610162600480360361015d9190810190610c66565b6104c9565b604051610170929190610d94565b60405180910390f35b34801561018557600080fd5b5061018e6104fc565b60405161019b9190610d1f565b60405180910390f35b3480156101b057600080fd5b506101b9610502565b6040516101c69190610d1f565b60405180910390f35b3480156101db57600080fd5b506101f660048036036101f19190810190610c66565b61050c565b604051610207959493929190610d3a565b60405180910390f35b34801561021c57600080fd5b5061023760048036036102329190810190610c8f565b6105fa565b005b34801561024557600080fd5b50610260600480360361025b9190810190610c8f565b610673565b60405161026e929190610d94565b60405180910390f35b34801561028357600080fd5b5061029e60048036036102999190810190610bd6565b6106b3565b6040516102ab9190610d1f565b60405180910390f35b3480156102c057600080fd5b506102c96106cb565b6040516102d69190610d1f565b60405180910390f35b3480156102eb57600080fd5b506102f46106d8565b6040516103019190610d1f565b60405180910390f35b61031261072a565b005b34801561032057600080fd5b50610329610779565b6040516103369190610d1f565b60405180910390f35b34801561034b57600080fd5b5061035461077f565b005b61035e610972565b6040805190810160405280848152602001838152509050600281908060018154018082558091505090600182039060005260206000209060020201600090919290919091506000820151816000015560208201518160010155505050505050565b6000806000815480929190600101919050555060004290506103df61098c565b60a06040519081016040528060005481526020018581526020018773ffffffffffffffffffffffffffffffffffffffff16815260200186815260200183815250905080600360008054815260200190815260200160002060008201518160000155602082015181600101908051906020019061045c9291906109d2565b5060408201518160020160006101000a81548173ffffffffffffffffffffffffffffffffffffffff021916908373ffffffffffffffffffffffffffffffffffffffff1602179055506060820151816003015560808201518160040155905050600054925050509392505050565b6002818154811015156104d857fe5b90600052602060002090600202016000915090508060000154908060010154905082565b60005481565b6000600154905090565b6003602052806000526040600020600091509050806000015490806001018054600181600116156101000203166002900480601f0160208091040260200160405190810160405280929190818152602001828054600181600116156101000203166002900480156105be5780601f10610593576101008083540402835291602001916105be565b820191906000526020600020905b8154815290600101906020018083116105a157829003601f168201915b5050505050908060020160009054906101000a900473ffffffffffffffffffffffffffffffffffffffff16908060030154908060040154905085565b6000600280549050905060008090505b8181101561066d578360028281548110151561062257fe5b9060005260206000209060020201600001541415610660578260028281548110151561064a57fe5b9060005260206000209060020201600101819055505b808060010191505061060a565b50505050565b60046020528160005260406000208181548110151561068e57fe5b9060005260206000209060020201600091509150508060000154908060010154905082565b60056020528060005260406000206000915090505481565b6000600280549050905090565b600060016000815480929190600101919050555060006002816106fb9190610a52565b506002600460006001548152602001908152602001600020908054610721929190610a84565b50600154905090565b34600560003373ffffffffffffffffffffffffffffffffffffffff1673ffffffffffffffffffffffffffffffffffffffff16815260200190815260200160002060008282540192505081905550565b60015481565b60026004600060015481526020019081526020016000209080546107a4929190610a84565b506000600280549050905060008090505b81811015610965576000806002838154811015156107cf57fe5b906000526020600020906002020160010154600360006002868154811015156107f457fe5b906000526020600020906002020160000154815260200190815260200160002060030154029150600560003373ffffffffffffffffffffffffffffffffffffffff1673ffffffffffffffffffffffffffffffffffffffff16815260200190815260200160002054821115151561086957600080fd5b6003600060028581548110151561087c57fe5b906000526020600020906002020160000154815260200190815260200160002060020160009054906101000a900473ffffffffffffffffffffffffffffffffffffffff1690508073ffffffffffffffffffffffffffffffffffffffff166108fc839081150290604051600060405180830381858888f19350505050158015610908573d6000803e3d6000fd5b5081600560003373ffffffffffffffffffffffffffffffffffffffff1673ffffffffffffffffffffffffffffffffffffffff16815260200190815260200160002060008282540392505081905550505080806001019150506107b5565b5061096e6106d8565b5050565b604080519081016040528060008152602001600081525090565b60a0604051908101604052806000815260200160608152602001600073ffffffffffffffffffffffffffffffffffffffff16815260200160008152602001600081525090565b828054600181600116156101000203166002900490600052602060002090601f016020900481019282601f10610a1357805160ff1916838001178555610a41565b82800160010185558215610a41579182015b82811115610a40578251825591602001919060010190610a25565b5b509050610a4e9190610af0565b5090565b815481835581811115610a7f57600202816002028360005260206000209182019101610a7e9190610b15565b5b505050565b828054828255906000526020600020906002028101928215610adf5760005260206000209160020282015b82811115610ade5782826000820154816000015560018201548160010155505091600201919060020190610aaf565b5b509050610aec9190610b15565b5090565b610b1291905b80821115610b0e576000816000905550600101610af6565b5090565b90565b610b4191905b80821115610b3d57600080820160009055600182016000905550600201610b1b565b5090565b90565b6000610b508235610e5d565b905092915050565b6000610b648235610e6f565b905092915050565b600082601f8301121515610b7f57600080fd5b8135610b92610b8d82610dea565b610dbd565b91508082526020830160208301858383011115610bae57600080fd5b610bb9838284610e8b565b50505092915050565b6000610bce8235610e81565b905092915050565b600060208284031215610be857600080fd5b6000610bf684828501610b44565b91505092915050565b600080600060608486031215610c1457600080fd5b6000610c2286828701610b58565b9350506020610c3386828701610bc2565b925050604084013567ffffffffffffffff811115610c5057600080fd5b610c5c86828701610b6c565b9150509250925092565b600060208284031215610c7857600080fd5b6000610c8684828501610bc2565b91505092915050565b60008060408385031215610ca257600080fd5b6000610cb085828601610bc2565b9250506020610cc185828601610bc2565b9150509250929050565b610cd481610e21565b82525050565b6000610ce582610e16565b808452610cf9816020860160208601610e9a565b610d0281610ecd565b602085010191505092915050565b610d1981610e53565b82525050565b6000602082019050610d346000830184610d10565b92915050565b600060a082019050610d4f6000830188610d10565b8181036020830152610d618187610cda565b9050610d706040830186610ccb565b610d7d6060830185610d10565b610d8a6080830184610d10565b9695505050505050565b6000604082019050610da96000830185610d10565b610db66020830184610d10565b9392505050565b6000604051905081810181811067ffffffffffffffff82111715610de057600080fd5b8060405250919050565b600067ffffffffffffffff821115610e0157600080fd5b601f19601f8301169050602081019050919050565b600081519050919050565b6000610e2c82610e33565b9050919050565b600073ffffffffffffffffffffffffffffffffffffffff82169050919050565b6000819050919050565b6000610e6882610e33565b9050919050565b6000610e7a82610e33565b9050919050565b6000819050919050565b82818337600083830152505050565b60005b83811015610eb8578082015181840152602081019050610e9d565b83811115610ec7576000848401525b50505050565b6000601f19601f830116905091905056fea265627a7a72305820363cb7d002748dcd416afbd27a83838ee69f8c2bc32cf3a8c095f55c30b4a7836c6578706572696d656e74616cf50037",
  "source": "pragma solidity ^0.5.0;\npragma experimental ABIEncoderV2;\n\n// import 'openzeppelin-solidity/contracts/token/ERC721/ERC721Full.sol';\n// import \"openzeppelin-solidity/contracts/token/ERC721/ERC721.sol\";\n// import 'openzeppelin-solidity/contracts/ownership/Ownable.sol';\n\ncontract PayrollContract {\n  uint256 public employee_id;\n  uint256 public payroll_id;\n\n  struct Employee {\n    uint256 employee_id;\n    string name;\n    address payable public_address;\n    uint256 hourly_rate;\n    uint256 time_created;\n  }\n\n  struct Payroll {\n    uint256 employee_id;\n    uint256 hours_worked;\n  }\n\n  Payroll[] public currentPayroll;\n\n  mapping (uint => Employee) public employees;\n  mapping (uint => Payroll[]) public payrolls;\n  mapping (address => uint256) public balanceOf;\n\n  // todo: dont work\n  // function getCurrentPayroll (uint i) public returns(Payroll) {\n  //   return currentPayroll[i];\n  // }\n  \n\n  function deposit() public payable {\n    balanceOf[msg.sender] += msg.value;\n  }\n\n  function currentPayrollCount() public view returns(uint256) {\n    return currentPayroll.length;\n  }\n  \n  function createEmployee(address payable _employee_address, uint _hourly_rate, string memory _name) public returns(uint) {\n    // we don't need to pass in employee_id as an argument to the mint function because of the line below:\n    employee_id++;\n\n    uint time_created = now;\n\n    Employee memory employee = Employee({\n      name: _name,\n      employee_id: employee_id,\n      public_address: _employee_address,\n      hourly_rate: _hourly_rate,\n      time_created: time_created\n    });\n\n    employees[employee_id] = employee;\n\n    return employee_id;\n  }\n\n  function createNewPayroll() public returns(uint) {\n    payroll_id++;\n\n    currentPayroll.length = 0;\n\n    payrolls[payroll_id] = currentPayroll;\n\n    return payroll_id;\n  }\n\n  function getCurrentPayroll() public view returns(uint) {\n    return payroll_id;\n  }\n\n  function addEmployeeToPayroll(uint _employee_id, uint _hours_worked) public {\n    Payroll memory newEmployeePayroll = Payroll({\n      employee_id: _employee_id,\n      hours_worked: _hours_worked\n    });\n\n    currentPayroll.push(newEmployeePayroll);\n  }\n\n  function updateHoursWorked(uint _employee_id, uint _hours_worked) public {\n    uint arrayLength = currentPayroll.length;\n\n    for (uint i=0; i<arrayLength; i++) {\n      if(currentPayroll[i].employee_id == _employee_id) {\n        currentPayroll[i].hours_worked = _hours_worked;\n      }\n    }\n  }\n\n  function runPayroll() public {\n    // set current payroll\n    payrolls[payroll_id] = currentPayroll;\n\n    uint arrayLength = currentPayroll.length;\n\n    for (uint i=0; i<arrayLength; i++) {\n      uint256 payment;\n      address payable employee_address;\n\n      payment = employees[currentPayroll[i].employee_id].hourly_rate*currentPayroll[i].hours_worked;\n\n      require(payment <= balanceOf[msg.sender]);\n\n      employee_address = employees[currentPayroll[i].employee_id].public_address;\n      employee_address.transfer(payment);\n      balanceOf[msg.sender] -= payment;\n    }\n\n    createNewPayroll();\n  }\n}\n",
  "sourcePath": "/Users/richardkuo/Work/ethereum/consensus-2019/contracts/PayrollContract.sol",
  "compiler": {
    "name": "solc",
    "version": "0.5.0+commit.1d4f565a.Emscripten.clang"
  },
  "schemaVersion": "3.0.9",
  "updatedAt": "2019-05-12T16:50:00.510Z",
  "devdoc": {
    "methods": {}
  },
  "userdoc": {
    "methods": {}
  }
}