{
  "contractName": "PayrollContract",
  "abi": [
    {
      "constant": true,
      "inputs": [],
      "name": "employee_id",
      "outputs": [
        {
          "name": "",
          "type": "uint256"
        }
      ],
      "payable": false,
      "stateMutability": "view",
      "type": "function"
    },
    {
      "constant": true,
      "inputs": [
        {
          "name": "",
          "type": "uint256"
        }
      ],
      "name": "employees",
      "outputs": [
        {
          "name": "employee_id",
          "type": "uint256"
        },
        {
          "name": "public_address",
          "type": "address"
        },
        {
          "name": "hourly_rate",
          "type": "uint256"
        },
        {
          "name": "time_created",
          "type": "uint256"
        }
      ],
      "payable": false,
      "stateMutability": "view",
      "type": "function"
    },
    {
      "constant": true,
      "inputs": [
        {
          "name": "",
          "type": "uint256"
        },
        {
          "name": "",
          "type": "uint256"
        }
      ],
      "name": "payrolls",
      "outputs": [
        {
          "name": "employee_id",
          "type": "uint256"
        },
        {
          "name": "hours_worked",
          "type": "uint256"
        }
      ],
      "payable": false,
      "stateMutability": "view",
      "type": "function"
    },
    {
      "constant": true,
      "inputs": [
        {
          "name": "",
          "type": "address"
        }
      ],
      "name": "balanceOf",
      "outputs": [
        {
          "name": "",
          "type": "uint256"
        }
      ],
      "payable": false,
      "stateMutability": "view",
      "type": "function"
    },
    {
      "constant": true,
      "inputs": [],
      "name": "payroll_id",
      "outputs": [
        {
          "name": "",
          "type": "uint256"
        }
      ],
      "payable": false,
      "stateMutability": "view",
      "type": "function"
    },
    {
      "constant": false,
      "inputs": [],
      "name": "deposit",
      "outputs": [],
      "payable": true,
      "stateMutability": "payable",
      "type": "function"
    },
    {
      "constant": false,
      "inputs": [
        {
          "name": "_employee_address",
          "type": "address"
        },
        {
          "name": "_hourly_rate",
          "type": "uint256"
        }
      ],
      "name": "createEmployee",
      "outputs": [],
      "payable": false,
      "stateMutability": "nonpayable",
      "type": "function"
    },
    {
      "constant": false,
      "inputs": [],
      "name": "createNewPayroll",
      "outputs": [
        {
          "name": "",
          "type": "uint256"
        }
      ],
      "payable": false,
      "stateMutability": "nonpayable",
      "type": "function"
    },
    {
      "constant": true,
      "inputs": [],
      "name": "getCurrentPayroll",
      "outputs": [
        {
          "name": "",
          "type": "uint256"
        }
      ],
      "payable": false,
      "stateMutability": "view",
      "type": "function"
    },
    {
      "constant": false,
      "inputs": [
        {
          "name": "_employee_id",
          "type": "uint256"
        },
        {
          "name": "_hours_worked",
          "type": "uint256"
        }
      ],
      "name": "addEmployeeToPayroll",
      "outputs": [],
      "payable": false,
      "stateMutability": "nonpayable",
      "type": "function"
    },
    {
      "constant": false,
      "inputs": [
        {
          "name": "_employee_id",
          "type": "uint256"
        },
        {
          "name": "_hours_worked",
          "type": "uint256"
        }
      ],
      "name": "updateHoursWorked",
      "outputs": [],
      "payable": false,
      "stateMutability": "nonpayable",
      "type": "function"
    },
    {
      "constant": false,
      "inputs": [],
      "name": "runPayroll",
      "outputs": [],
      "payable": false,
      "stateMutability": "nonpayable",
      "type": "function"
    }
  ],
  "bytecode": "0x608060405234801561001057600080fd5b50610a29806100206000396000f3fe6080604052600436106100ba576000357c0100000000000000000000000000000000000000000000000000000000900463ffffffff1680632486cd97146100bf578063387dbcab1461010457806346ccd0091461012f5780634739326b1461015a57806351c1d669146101ea578063520a19c01461022f5780636394b1e01461028a57806370a08231146102ea5780639b9238711461034f578063d0e30db01461037a578063dfdd145314610384578063f2e80483146103af575b600080fd5b3480156100cb57600080fd5b50610102600480360360408110156100e257600080fd5b8101908080359060200190929190803590602001909291905050506103c6565b005b34801561011057600080fd5b5061011961042f565b6040518082815260200191505060405180910390f35b34801561013b57600080fd5b50610144610435565b6040518082815260200191505060405180910390f35b34801561016657600080fd5b506101936004803603602081101561017d57600080fd5b810190808035906020019092919050505061043f565b604051808581526020018473ffffffffffffffffffffffffffffffffffffffff1673ffffffffffffffffffffffffffffffffffffffff16815260200183815260200182815260200194505050505060405180910390f35b3480156101f657600080fd5b5061022d6004803603604081101561020d57600080fd5b81019080803590602001909291908035906020019092919050505061048f565b005b34801561023b57600080fd5b506102886004803603604081101561025257600080fd5b81019080803573ffffffffffffffffffffffffffffffffffffffff16906020019092919080359060200190929190505050610508565b005b34801561029657600080fd5b506102cd600480360360408110156102ad57600080fd5b8101908080359060200190929190803590602001909291905050506105e5565b604051808381526020018281526020019250505060405180910390f35b3480156102f657600080fd5b506103396004803603602081101561030d57600080fd5b81019080803573ffffffffffffffffffffffffffffffffffffffff169060200190929190505050610625565b6040518082815260200191505060405180910390f35b34801561035b57600080fd5b5061036461063d565b6040518082815260200191505060405180910390f35b61038261068f565b005b34801561039057600080fd5b506103996106de565b6040518082815260200191505060405180910390f35b3480156103bb57600080fd5b506103c46106e4565b005b6103ce6108d7565b6040805190810160405280848152602001838152509050600281908060018154018082558091505090600182039060005260206000209060020201600090919290919091506000820151816000015560208201518160010155505050505050565b60005481565b6000600154905090565b60036020528060005260406000206000915090508060000154908060010160009054906101000a900473ffffffffffffffffffffffffffffffffffffffff16908060020154908060030154905084565b6000600280549050905060008090505b8181101561050257836002828154811015156104b757fe5b90600052602060002090600202016000015414156104f557826002828154811015156104df57fe5b9060005260206000209060020201600101819055505b808060010191505061049f565b50505050565b600080815480929190600101919050555060004290506105266108f1565b60806040519081016040528060005481526020018573ffffffffffffffffffffffffffffffffffffffff1681526020018481526020018381525090508060036000805481526020019081526020016000206000820151816000015560208201518160010160006101000a81548173ffffffffffffffffffffffffffffffffffffffff021916908373ffffffffffffffffffffffffffffffffffffffff160217905550604082015181600201556060820151816003015590505050505050565b60046020528160005260406000208181548110151561060057fe5b9060005260206000209060020201600091509150508060000154908060010154905082565b60056020528060005260406000206000915090505481565b600060016000815480929190600101919050555060006002816106609190610930565b506002600460006001548152602001908152602001600020908054610686929190610962565b50600154905090565b34600560003373ffffffffffffffffffffffffffffffffffffffff1673ffffffffffffffffffffffffffffffffffffffff16815260200190815260200160002060008282540192505081905550565b60015481565b6002600460006001548152602001908152602001600020908054610709929190610962565b506000600280549050905060008090505b818110156108ca5760008060028381548110151561073457fe5b9060005260206000209060020201600101546003600060028681548110151561075957fe5b906000526020600020906002020160000154815260200190815260200160002060020154029150600560003373ffffffffffffffffffffffffffffffffffffffff1673ffffffffffffffffffffffffffffffffffffffff1681526020019081526020016000205482111515156107ce57600080fd5b600360006002858154811015156107e157fe5b906000526020600020906002020160000154815260200190815260200160002060010160009054906101000a900473ffffffffffffffffffffffffffffffffffffffff1690508073ffffffffffffffffffffffffffffffffffffffff166108fc839081150290604051600060405180830381858888f1935050505015801561086d573d6000803e3d6000fd5b5081600560003373ffffffffffffffffffffffffffffffffffffffff1673ffffffffffffffffffffffffffffffffffffffff168152602001908152602001600020600082825403925050819055505050808060010191505061071a565b506108d361063d565b5050565b604080519081016040528060008152602001600081525090565b60806040519081016040528060008152602001600073ffffffffffffffffffffffffffffffffffffffff16815260200160008152602001600081525090565b81548183558181111561095d5760020281600202836000526020600020918201910161095c91906109ce565b5b505050565b8280548282559060005260206000209060020281019282156109bd5760005260206000209160020282015b828111156109bc578282600082015481600001556001820154816001015550509160020191906002019061098d565b5b5090506109ca91906109ce565b5090565b6109fa91905b808211156109f6576000808201600090556001820160009055506002016109d4565b5090565b9056fea165627a7a72305820bf47adf251a46b509890a7015dc739d3123063e80b968b886bc45f7a998066740029",
  "source": "pragma solidity ^0.5.0;\n\n// import 'openzeppelin-solidity/contracts/token/ERC721/ERC721Full.sol';\n// import \"openzeppelin-solidity/contracts/token/ERC721/ERC721.sol\";\n// import 'openzeppelin-solidity/contracts/ownership/Ownable.sol';\n\ncontract PayrollContract {\n  uint256 public employee_id;\n  uint256 public payroll_id;\n\n  struct Employee {\n    uint256 employee_id;\n    address payable public_address;\n    uint256 hourly_rate;\n    uint256 time_created;\n  }\n\n  struct Payroll {\n    uint256 employee_id;\n    uint256 hours_worked;\n  }\n\n  Payroll[] currentPayroll;\n\n  mapping (uint => Employee) public employees;\n  mapping (uint => Payroll[]) public payrolls;\n  mapping (address => uint256) public balanceOf;\n\n  function deposit() public payable {\n    // require > 0 \n    // require(msg.value == amount);\n    balanceOf[msg.sender] += msg.value;\n  }\n\n  function createEmployee(address payable _employee_address, uint _hourly_rate) public {\n    // we don't need to pass in employee_id as an argument to the mint function because of the line below:\n    employee_id++;\n\n    uint time_created = now;\n\n    Employee memory employee = Employee({\n      employee_id: employee_id,\n      public_address: _employee_address,\n      hourly_rate: _hourly_rate,\n      time_created: time_created\n    });\n\n    employees[employee_id] = employee;\n  }\n\n  function createNewPayroll() public returns(uint) {\n    payroll_id++;\n\n    currentPayroll.length = 0;\n\n    payrolls[payroll_id] = currentPayroll;\n\n    return payroll_id;\n  }\n\n  function getCurrentPayroll() public view returns(uint) {\n    return payroll_id;\n  }\n\n  function addEmployeeToPayroll(uint _employee_id, uint _hours_worked) public {\n    Payroll memory newEmployeePayroll = Payroll({\n      employee_id: _employee_id,\n      hours_worked: _hours_worked\n    });\n\n    currentPayroll.push(newEmployeePayroll);\n  }\n\n  function updateHoursWorked(uint _employee_id, uint _hours_worked) public {\n    uint arrayLength = currentPayroll.length;\n\n    for (uint i=0; i<arrayLength; i++) {\n      if(currentPayroll[i].employee_id == _employee_id) {\n        currentPayroll[i].hours_worked = _hours_worked;\n      }\n    }\n  }\n\n  function runPayroll() public {\n    // set current payroll\n    payrolls[payroll_id] = currentPayroll;\n\n    uint arrayLength = currentPayroll.length;\n\n    for (uint i=0; i<arrayLength; i++) {\n      uint256 payment;\n      address payable employee_address;\n\n      payment = employees[currentPayroll[i].employee_id].hourly_rate*currentPayroll[i].hours_worked;\n\n      require(payment <= balanceOf[msg.sender]);\n\n      employee_address = employees[currentPayroll[i].employee_id].public_address;\n      employee_address.transfer(payment);\n      balanceOf[msg.sender] -= payment;\n    }\n\n    createNewPayroll();\n  }\n}\n",
  "sourcePath": "/Users/freeslugs/Downloads/doggocoin/contracts/PayrollContract.sol",
  "compiler": {
    "name": "solc",
    "version": "0.5.0+commit.1d4f565a.Emscripten.clang"
  },
  "schemaVersion": "3.0.1",
  "updatedAt": "2019-05-11T22:54:34.576Z",
  "devdoc": {
    "methods": {}
  },
  "userdoc": {
    "methods": {}
  }
}